:040000008A11112828
:10000800FE00030EF0000408F1000A08F200831253
:1000180003137F08F3008A11AD288A111328A00161
:10002800A101A201A30183018A111A288A11422180
:100038008A118A1128218A1183120313A001A101B0
:100048000130A4000030A5008A11E1208A11F800CF
:10005800780883120313A6008D282308F9002208C4
:10006800F8007908F800F90126087806F0397806CA
:10007800A600F230A60526088A1109218A118312E2
:1000880003132308F9002208F80004300310F90CC0
:10009800F80CFF3E031D4A2826087806F039780632
:1000A800A60026088A1109218A118312031326083B
:1000B8002206F0392206A60026088A1109218A118B
:1000C8008312031388282008210403196E28A0012D
:1000D800A10180280130A0000030A10088289E01DD
:1000E800831603139E01831203138828240825040A
:1000F80003198428A401A5012608F0390C388B2897
:100108000130A4000030A5002608F0390E38A600FA
:100118009F2826080F39003A03197328013A031952
:100128007928033A03193128013A03197A280E3A33
:10013800031967289F2826088A1109218A11831222
:10014800031324032504031D28288A115C218A111E
:1001580028280C1FD0280C131E08A300831603138D
:100168001E0883120313A2000130230291300319E1
:1001780022020318CF2820082104031DCC280130AF
:1001880023026830031922020318CC280710D0284C
:1001980020082104031D07140B1DD6280B119F18D6
:1001A800D6289F147308FF0072088A00710884001B
:1001B800700E8300FE0E7E0E0900F030F7058312E4
:1001C8000313051DE3280519E7288A115A218A1106
:1001D8008A1153218A1183120313051DEF2807087A
:1001E800F50002300310F50CFF3E031DF6287708D2
:1001F8000F39F6007508F60477087606F0397606A2
:10020800F7000519052977080800F700831203137A
:1002180005190A298A114C218A11C330F50075087D
:1002280083120313870577080F39F500013003108F
:10023800F50DFF3E031D1B290310750DF60076080A
:10024800870405190800252983120313A001A101B9
:100258008316031391169530831203139F001030F1
:10026800831603139F00073081008B160B170C179A
:100278000B11831203130C138B1708000430831619
:100288000313850091013E3087008A11532108002D
:10029800C330F400740883160313870508003C3044
:1002A800F400740883160313870408008B130800EE
:0402B8008B17080098
:02400E00F4F0CC
:00000001FF
